:020000040800F2
:1000000000C80220D5010008631C0008C11B0008BD
:10001000611C0008F10200083531000800000000F2
:10002000000000000000000000000000D12A0008CD
:10003000F302000800000000E11E0008692C00081F
:10004000EF010008EF010008EF010008EF010008D0
:10005000EF010008EF010008EF010008EF010008C0
:10006000EF010008EF010008EF010008EF010008B0
:10007000EF010008EF010008EF010008EF010008A0
:10008000EF010008EF010008EF010008EF01000890
:10009000EF010008EF010008EF010008EF01000880
:1000A000EF010008EF010008EF010008EF01000870
:1000B000EF010008EF010008EF010008EF01000860
:1000C000EF010008EF010008EF010008EF01000850
:1000D000EF010008BD300008EF010008EF01000843
:1000E000EF010008EF010008EF010008EF01000830
:1000F000EF010008EF010008EF010008EF01000820
:10010000EF010008EF010008EF010008EF0100080F
:10011000EF010008EF010008EF010008EF010008FF
:10012000EF010008EF010008EF010008EF010008EF
:10013000EF010008EF010008EF010008EF010008DF
:10014000EF010008EF010008EF010008EF010008CF
:10015000EF010008EF010008EF010008EF010008BF
:10016000EF010008EF010008EF010008EF010008AF
:10017000EF010008EF010008EF0100080000000097
:10018000EF010008EF010008EF010008EF0100088F
:10019000EF010008EF010008EF010008EF0100087F
:1001A000EF010008EF010008EF010008DFF810D0B0
:1001B00000F08CF8004800478D530008AFF3008032
:1001C00000C8022030BF72B6704762B6704780F335
:1001D000088870470648804706480047FEE7FEE764
:1001E000FEE7FEE7FEE7FEE7FEE7FEE7FEE7FEE7E7
:1001F0006D2C0008AD0100082DE9F05F05460020D8
:1002000092469B4688460646814640241BE0284687
:1002100041464746224600F048F853465A46C01A1F
:10022000914110D311461846224600F02FF82D1A9E
:1002300067EB01084F4622460120002100F026F816
:1002400017EB00094E41201EA4F10104DFDC4846F3
:1002500031462A464346BDE8F09F40EA01039B072A
:1002600003D009E008C9121F08C0042AFAD203E02B
:1002700011F8013B00F8013B521EF9D27047421CB5
:1002800010F8011B0029FBD1801A7047202A04DBDB
:10029000203A00FA02F1002070479140C2F1200399
:1002A00020FA03F3194390407047202A04DB203AD8
:1002B00021FA02F00021704721FA02F3D040C2F186
:1002C000200291400843194670470000064C074D34
:1002D00006E0E06840F0010394E807009847103416
:1002E000AC42F6D3FFF766FF7C7900089C790008E2
:1002F000FEE770470022002905D0012922D00229FB
:1003000023D04FF440720B2800D9001D10490B6810
:1003100023F440730B600B6813430B600A6822F0F0
:10032000F8020A600A68F82393FAA3F3B3FA83F396
:10033000984040F0020002430A60086840F48030B0
:10034000086070474FF48072DDE74FF40072DAE71F
:10035000103C02401348016889050FD5016821F45B
:1003600000710160016841F400610160016821F4DD
:1003700000610160016841F4007101600168490594
:100380000FD5016821F480610160016841F480515A
:100390000160016821F480510160016841F48061CD
:1003A00001607047003C02400F48026822F440722E
:1003B00002600268026003290AD001290ED0016898
:1003C00041F400410160016841F4803101607047EF
:1003D000016848F2040211430160F4E7016841F04A
:1003E00004010160EFE70000103C0240064A136878
:1003F00023F44073136013681360136843F0010320
:100400001360017070470000103C024010B50849AD
:100410000C6824F440740C600C6844F440740C6064
:100420000C6844F001040C600260436010BD0000E1
:10043000103C0240074A136823F4407313601368AA
:1004400043F480731360136843F001031360018069
:1004500070470000103C0240074A136823F44073C1
:100460001360136843F400731360136843F00103CF
:100470001360016070470000103C02401F4908688B
:10048000C043C2061E4805D4C26942F01002C261D0
:1004900010220A600A68D243920605D4C26942F06B
:1004A0000802C26120220A600A68D243520605D4BB
:1004B000C26942F00402C26140220A600A68D24363
:1004C000120605D4C26942F00202C26180220A60AB
:1004D0000A68D243D20506D4C26942F00102C26161
:1004E0004FF480720A600A68D243920705D4C26949
:1004F00042F02002C2610220086070470C3C0240BA
:100500004800002070B5044612490020C86100F080
:10051000D5F90546104E09E0601C07D024B100F063
:10052000CDF9401BA04201D9032070BD3068C04303
:10053000C003F1D53068C00701D0012030603168B8
:100540004FF4F970884301D0002070BDFFF796FF8B
:10055000012070BD480000200C3C024031B500F085
:10056000ADF9044600F0AAF90099001B8842F9D3BE
:1005700038BD00002DE9F04704460E46DFF88C80B8
:1005800098F8180001280BD0012088F818004CF2C8
:1005900050394846FFF7B6FF0246100003D030E05E
:1005A0000220BDE8F0874FF0FF3030602068184F20
:1005B000012801D0A5681DE0207C6168FFF7F4FEEA
:1005C0004846FFF79FFF0246386848F20401884317
:1005D000386014E0217C2846FFF78CFE4846FFF780
:1005E00091FF0246386820F0FA0038600AB13560A1
:1005F00005E06D1CD4E902100844A842EAD8FFF7D0
:10060000A9FE002088F818001046CAE7480000201C
:10061000103C02400348016841F0004101600020A5
:1006200070470000103C02402DE9F047064689461D
:1006300014461D46194F387E012808D0012038760F
:100640004CF250384046FFF75DFF18B114E002202D
:10065000BDE8F0879EB1012E16D0022E19D0224699
:100660002B464846FFF7D2FE4046FFF74BFF0C49AA
:100670000A6822F001020A6000213976E8E7E1B257
:100680004846FFF7B3FEEFE7A1B24846FFF7D2FEB8
:10069000EAE721464846FFF7DFFEE5E7480000208D
:1006A000103C024006480068002807DA0448054963
:1006B0000C38016004490160002070470120704738
:1006C000103C024023016745AB89EFCD2DE9F84F7F
:1006D0000022DFF8A491DFF8A08109F108094FF0AA
:1006E000010E4FF00F0C09F1040A0EFA02F60B6826
:1006F0003340B34271D14C68022C01D0122C11D17D
:10070000D40800EB84073D6A5407E40E0CFA04FB9E
:1007100025EA0B05D1F810B00BFA04FB4BEA050BE8
:10072000C7F820B0076854000325A540AF4391F8EF
:1007300004B00BF0030B0BFA04FB4BEA070BC0F8F9
:1007400000B04F68012F05D0022F03D0112F01D028
:10075000122F11D18768AF43D1F80CB00BFA04FB0C
:100760004BEA070BC0F808B04768B7430E79C6F3E9
:10077000001696403E434660C668AE438D68A5406D
:100780003543C5604C68E4006FD53C4C256845F4A2
:1007900080452560246804F480440094384C22F09D
:1007A00003052544D5F808789407260F0CFA06F4BB
:1007B000A743344CA04201D100242EE0324CA04289
:1007C00001D1012429E0314CA04201D1022424E0CE
:1007D0002F4CA04202D103241FE046E02D4CA04242
:1007E00001D1042419E02C4CA04201D1052414E0CD
:1007F0002A4CA04201D106240FE0294CA04201D18D
:1008000007240AE0274CA04201D1082405E0264C29
:10081000A04201D1092400E00A24B4403C43C5F8B9
:100820000848D8F800409C434D68ED0300D51C43B0
:10083000C8F80040104D2D1D2C689C434E68B6032F
:1008400000D51C432C60D9F800409C434D68ED0254
:1008500000D51C43C9F80040DAF800409C434D68BD
:10086000AD0200D51C43CAF80040521C102AFFF408
:100870003CAFBDE8F88F0000003C01404438024026
:100880000030014000000240000402400008024025
:10089000000C024000100240001402400018024008
:1008A000001C02400020024000240240002A01D027
:1008B0008161704709048161704700000148006848
:1008C000704700001800002002480168491C0160C0
:1008D000704700001800002010B50B48016841F473
:1008E00000710160016841F480610160016841F4B8
:1008F00080710160052000F049F80F2000F006F833
:1009000000F015F8002010BD003C024010B5044670
:1009100000F0B0F94FF47A72B0FBF2F000F0E1FFB2
:1009200000222146501E00F011F8002010BD08B52D
:100930000020009008BD00F01F02012191404009F5
:10094000800000F1E020C0F800117047F0B40D46BF
:100950000D4B1B68C3F30223C3F10704042C00D919
:100960000424191D072901D2002300E0DB1E012603
:1009700006FA04F1491E294099409E40761E164011
:100980003143F0BC01F06EB90CED00E000F007015E
:10099000054A10684FF6FF03184040EA012003495A
:1009A00008431060704700000CED00E00000FA05FD
:1009B0002DE9F8431E48016841F08051016000684C
:1009C00000F0805000900127380490FAA0F0DFF882
:1009D0006480B0FA80F048F82070FFF76FFF05469A
:1009E0004FF47A76144C07E0FFF768FF401BB042E3
:1009F00002D90320BDE8F8836068C003F4D54FF442
:100A0000003090FAA0F0B0FA80F048F82070FFF7BC
:100A100055FF054606E0FFF751FF401BB04201D9E4
:100A20000320E7E760688003F5D50020E2E70000D7
:100A30004038024000000E42007000402DE9F047AF
:100A400004460F46DFF824A2DAF80000DFF820821F
:100A500000F00F00864907F0FF0941F2883608F1DF
:100A60000808B84274D28AF80090DAF8000000F062
:100A70000F00B84202D00120BDE8F087207880073F
:100A800007D5D8F80000A26820F0F0001043C8F89D
:100A900000002078C00734D06068012808D0022800
:100AA0000BD0032809D0096889070BD40120E3E79C
:100AB0000968890306D40120DEE70968890101D4A9
:100AC0000120D9E7D8F8001021F003010143C8F84C
:100AD0000010FFF7F3FE0546606801280BD00228DE
:100AE00017D003281ED02CE0FFF7E8FE401BB042D1
:100AF00001D90320C0E7D8F80000C0F38100012825
:100B0000F2D197E0FFF7DAFE401BB04201D9032093
:100B1000B2E7D8F80000C0F381000228F2D189E0E2
:100B20000320A9E7D8F80000FFF7C8FE401BB04239
:100B3000F8D9F5E7FFF7C2FE401BB04201D9032008
:100B40009AE7D8F8000010F00C0FF3D172E0FFE73D
:100B50002078800707D5D8F80000A26820F0F000C0
:100B60001043C8F800002078C00759D060680128F9
:100B700008D002280BD0032809D0096889070BD4B4
:100B8000012079E70968890306D4012074E7096820
:100B9000890101D401206FE7D8F8001021F003018A
:100BA0000143C8F80010FFF789FE05466068012878
:100BB0000BD0022817D003281ED02CE0FFF77EFEB2
:100BC000401BB04201D9032056E7D8F80000C0F31B
:100BD00081000128F2D123E0FFF770FE401BB042F4
:100BE00001D9032048E7D8F80000C0F381000228AB
:100BF000F2D115E003203FE7D8F80000FFF75EFED2
:100C0000401BB042F8D9F5E7FFF758FE401BB04251
:100C100001D9032030E7D8F8000010F00C0FF3D111
:100C20008AF80090DAF8000000F00F00B84201D016
:100C3000012021E72078400707D5D8F80000E168B7
:100C400020F4E0500843C8F800002078000708D5D9
:100C5000D8F80000216920F4604040EAC100C8F8DB
:100C600000000F20FFF752FE002005E7003C024085
:100C70000038024010B500F043F808490968F02236
:100C800092FAA2F201F0F001B2FA82F2D140044AE3
:100C9000515CC8400349086010BD0000083802409C
:100CA0006C5C00080400002010B5FFF7E3FF074963
:100CB00009684FF4E05292FAA2F201F4E051B2FA5C
:100CC00082F2D140024A515CC84010BD083802404F
:100CD0006C5C000810B5FFF7CDFF074909684FF4B9
:100CE000604292FAA2F201F46041B2FA82F2D1407B
:100CF000024A515CC84010BD083802406C5C0008D4
:100D000030B51D48006810F00C011C481AD01C4C6E
:100D1000042916D0082915D1174A121F116801F0AD
:100D20003F0113685D0247F6C0730CD5B4FBF1F0C8
:100D30001168194093FAA3F3B3FA83F3D9404843F7
:100D40000BE0204630BDB0FBF1F01168194093FA7A
:100D5000A3F3B3FA83F3D940484311684FF4403208
:100D600092FAA2F201F44031B2FA82F2D140491C67
:100D70004900B0FBF1F030BD083802400024F40017
:100D800040787D012DE9F84F0446DFF83C93207848
:100D9000CE4DC0074FF0000641F2883A4DD0D9F849
:100DA0000000C0F38100012809D0D9F80000C0F389
:100DB000810002280BD1281D0068400207D5286851
:100DC00080033AD5606848BB0120BDE8F88FDFF8A2
:100DD000FC8208F1020888F80060FFF76FFD074603
:100DE00006E0FFF76BFDC01B504501D90320ECE77F
:100DF00028688003F5D4207988F80000606870B115
:100E0000FFF75CFD074606E0FFF758FDC01B5045A5
:100E100001D90320D9E728688003F5D50DE0FFF755
:100E20004DFD074606E0FFF749FDC01B504501D9BF
:100E30000320CAE728688003F5D42078DFF8908281
:100E4000800754D5D9F800004FF0F80B10F00C0FC4
:100E50000AD0D9F80000C0F38100022818D19A48BE
:100E6000001F0068400213D42868800704D5E0689A
:100E7000012801D00120A8E728689BFAABF220F0F6
:100E8000F8012069B2FA82F29040014329602EE015
:100E9000E068E0B10120C8F80000FFF70FFD074649
:100EA00006E0FFF70BFDC01B642801D903208CE787
:100EB00028688007F5D528689BFAABF220F0F80186
:100EC0002069B2FA82F29040014329600FE0C8F82D
:100ED0000060FFF7F3FC074606E0FFF7EFFCC01BDE
:100EE000642801D9032070E728688007F5D42078AA
:100EF000000728D5DFF8D0B1764861690BF16C0B9B
:100F000089B101210160FFF7D9FC074606E0FFF730
:100F1000D5FCC01B642801D9032056E7DBF800008C
:100F20008007F4D50FE00660FFF7C8FC074606E02F
:100F3000FFF7C4FCC01B642801D9032045E7DBF898
:100F400000008007F4D42078400755D55E4838303B
:100F5000016841F080510160006800F0805000900D
:100F6000DFF874B1DBF8000040F48070CBF80000CB
:100F7000FFF7A4FC074606E0FFF7A0FCC01B6428AF
:100F800001D9032021E7DBF80000C005F4D54E4F5E
:100F900068373E70FFF792FC834607E0FFF78EFC50
:100FA000A0EB0B00504501D903200EE738688007FD
:100FB000F4D4207A3870A06878B1FFF77FFC8346BC
:100FC00007E0FFF77BFCA0EB0B00504501D90320A5
:100FD000FBE638688007F4D50EE0FFF76FFC834628
:100FE00007E0FFF76BFCA0EB0B00504501D9032095
:100FF000EBE638688007F4D4A069E8B3D9F80010AC
:10100000C1F3810102295CD0022805D0C8F86060D4
:10101000FFF754FC04464FE0C8F86060FFF74EFC51
:10102000064606E0FFF74AFC801B642801D903202E
:10103000CBE628688001F5D4D4E90701084347F6D8
:10104000C07292FAA2F2616AB2FA82F29140A26A86
:101050004FF0FF3303EB52024FF4403393FAA3F304
:10106000B3FA83F39A4011434FF0706292FAA2F2FE
:101070000843B2FA82F200E021E0E16A91400843BD
:101080001149091F08600120C8F86000FFF716FC2D
:10109000044606E0FFF712FC001B642801D9032078
:1010A00093E628688001F5D509E0FFF707FC001BEF
:1010B000642801D9032088E628688001F5D400203F
:1010C00083E6012081E60000083802400038024033
:1010D00000004742800E4742007000402DE9F04773
:1010E000002790F8202081F85620828CA1F8542007
:1010F000826A120E93090B70C2F383034B7002F0E5
:1011000003028A70826A120CCA70028D120A0A7176
:1011100090F828204A71C26A120E4FF6FF7909EA48
:101120000212CA80C26AC2F30742CB8843EA121392
:10113000CB8002F00F020A72828DC2F30722D3091C
:101140004B72C2F380138B72C2F34013CB72C2F3A3
:1011500000130B7300244C73036A4FF00108002B3B
:101160007ED0012BFCD0022B7BD02927C2F3801329
:101170004B769206520E8A761C3110F8302F11F8F9
:10118000023D43EAD2130B7002F07F024A704268BC
:10119000120ED3098B70C2F34113CB70C2F38203DA
:1011A0000B719207120F4A714268C2F307424B79E2
:1011B00043EA92134B71C2F3401301F8063F4C709F
:1011C00002F001028A708288C2F30722D309CB7031
:1011D000C2F380130B71C2F340134B71C2F30013BF
:1011E0008B71C2F38103CB7102F003020A720279A0
:1011F00052084A7281F80A808268120E0A73826865
:10120000120C09EA0222CA810289C2F30722CB89A1
:101210001343CB81027A12060A61C268120E0B696F
:1012200043EA02420A61C268C2F307420B6943EA19
:1012300002220A618289C2F307220B6913430B6100
:10124000027B0A750269120E4A750269120C1206B7
:101250008A61028AC2F307228B6943EA024201E0F3
:1012600024E066E08A61027C8B6943EA02228A619B
:101270004269120E8B6913438B614269C2F30742C4
:101280000B7F43EA12130B771207120DCA83828A6F
:10129000C2F30722CB8B1343CB83007D400881F838
:1012A000200081F821803846BDE8F0879207120DB2
:1012B0000A6190F82C200B6943EA82020A61026BF2
:1012C000120E0B6943EA92130B61C2F3C2030B7552
:1012D00002F007024A75026BC2F3074253098B758D
:1012E000C2F38203CB759207520F0A76028EC2F3C5
:1012F00007220B7E43EAD2130B760B695B1C0D7E33
:10130000AD1C08FA05FCA3FB0C5A4FEAEC7604FB73
:101310000CAC03FB06C691F808C008FA0CF30B6589
:10132000A5FB03CA06FB03A305FB0433C1E912C3F3
:101330001CE790F82C209206920A0A61026B120EAA
:101340000B6943EA02220A61026BC2F307420B698E
:1013500013430B61028EC2F307220B695B1C44F13D
:101360000005ED0445EA5335DB04C1E912354FF4BD
:1013700000730B65FAE670B58AB005460E46002488
:1013800009942C77284600F041F8039404940594BE
:1013900006940794762008900094CDE901402346F6
:1013A00022462146286800F0BFFD284601F0E8F8F3
:1013B00009909DF8240018B19DF824000AB070BD72
:1013C000284600F0C1FF09909DF8240010B19DF857
:1013D0002400F3E731462846FFF780FE09909DF888
:1013E000240038B9B6F8540000230204284601F05E
:1013F000B3F90990D5E9051228698DE807000FCDEA
:1014000000F092FD9DF82400D8E7000000B587B0F9
:101410001C48016841F400610160006800F400604C
:10142000019018481438016841F480010160016896
:1014300001F480010191016841F00401016001683B
:1014400001F004010191016841F0080101600068A8
:1014500000F0080001904FF4F85002900220039031
:1014600001200490032005900C20069002A9064854
:10147000FFF72CF90420029002A90448FFF726F98F
:1014800007B000BD4438024000080240000C024092
:101490002DE9F04F8BB00446DDE914980D46164651
:1014A0001F4621680020C862216A4FF4007A022991
:1014B00003D1D146760A46EAC756CDF818901021D6
:1014C0000791402108910746099008010A9006A952
:1014D000206800F045FD1021204600F06DFD002839
:1014E0002AD14FF0FF3BCDF800B008FB09F0019086
:1014F000902002904FF00209CDF80C900497012043
:1015000005906946206800F0ECFCB8F1010F02D9A3
:101510001220079001E011200790069606A9206886
:1015200000F01EFDB8F1010F1DD91221204600F078
:1015300043FD074687B138460BB0BDE8F08F406BDE
:10154000000409D50026206800F007FD45F82600B4
:10155000761C082EF7D320352068416B40F22A32E2
:101560001142ECD01AE01121204600F025FD07467B
:1015700038000DD0E0E7406B000409D50026206854
:1015800000F0EBFC45F82600761C082EF7D320353A
:101590002068416B40F22A621142ECD02068406B17
:1015A000C0050CD5B8F1010F09D9206A18B101287E
:1015B00001D0022803D1204600F030F80746216808
:1015C000486B000703D5082088630420B4E7486B04
:1015D000800703D54846C1F83890ADE7486B8006D0
:1015E00003D5202088630620A6E7486B800508D530
:1015F000C1F838A007209FE700F0AFFC01C5ABF1B0
:10160000010B2068416B890202D5BBF1000FF3D1B9
:10161000216840F2FF50886338468DE710B586B0E8
:101620000446002001900C21029140210391049076
:101630000801059001A9206800F092FC0C212046C9
:1016400000F0BAFC06B010BD70B58AB004460E4674
:101650000025206A032805D038B1012805D00228CA
:1016600003D02CE027200AB070BDB6F5805F06D00D
:10167000B6F5006F05D04EB1262565B11FE02725D0
:10168000FBE7204601F0B8F80546F6E7204601F0F2
:101690007AF80546F1E760680490A0680590E06874
:1016A0000690079660690890A069099007A807C886
:1016B0008DE8070004A920680EC900F035FC284613
:1016C000D1E72DE9F04F8DB00646DDE916A90C46AD
:1016D000174698460025002001903168C862316A9B
:1016E0004FF4007B022903D1DA467F0A47EAC85744
:1016F000CDF820A01021099140210A9180460B903D
:1017000008010C9008A9306800F02AFC102130462E
:1017100000F052FC002870D1B9F1010F02D9192054
:10172000099001E018200990089708A9306800F096
:1017300017FCB9F1010F04D91921304600F03CFC27
:1017400003E01821304600F037FC002855D109FB92
:101750000AF7401E0290039790200490CDF8148061
:10176000CDF818800120079002A9306800F0B9FB7D
:10177000B9F1010F2BD85DE0406B400427D5781BF1
:10178000202816D2810706D04FEA900A0AF1010AF2
:101790004FF000080AE04FEA900AF9E72146306866
:1017A00000F0EEFB241D2D1D08F10108D0450ED2DE
:1017B000F4E74FF0000804EB8801306800F0E0FB2C
:1017C00008F10108B8F1080FF5D32034203530684E
:1017D000416B40F21A321142CED031E0406B4004EE
:1017E00028D5781B202817D2810707D04FEA900A06
:1017F0000AF1010A4FF000080BE038E04FEA900AC6
:10180000F8E72146306800F0BBFB241D2D1D08F1D0
:101810000108D0450ED2F4E74FF0000804EB880130
:10182000306800F0ADFB08F10108B8F1080FF5D3FE
:10183000203420353068416B40F21A621142CDD01D
:101840003068406BC0050BD5B9F1010F08D9306A7B
:1018500018B1012801D0022802D13046FFF7DEFE80
:101860003168486B000705D50820886304200DB057
:10187000BDE8F08F486B800702D502208863F6E749
:10188000486BC00603D5102088630520EFE7486B3E
:10189000800503D5C1F838B00720E8E740F2FF50D3
:1018A000886301A9304600F0C5FD03E001A9304678
:1018B00000F0C0FD0028DAD19DF804100729F5D00A
:1018C0000629F3D0D3E74FF0E021042804D00869BB
:1018D00020F0040008617047086940F004000861C6
:1018E000704710B5401EB0F1807F01D3012010BDBC
:1018F0004FF0E02460610F21601700F0B3F9002081
:10190000A06107202061002010BD704738B5044653
:1019100021680868C0F30000CA6802F480720028D9
:1019200007D032B1086848680090E06B40F00100D1
:10193000E0630868C0F340004A6902F0010238B170
:1019400032B1086848680090E06B40F00400E06342
:101950000868C0F38002486900F001003AB130B174
:10196000086848680090E06B40F00200E063086897
:10197000C0F3C0004A6902F0010238B132B1086810
:1019800048680090E06B40F00800E0630868C0F32E
:101990004010C96801F0200118B111B1204601F0D2
:1019A000A4F920680168C1F3C011C06800F080008C
:1019B00019B110B1204601F0E9FA20680168C1F3BD
:1019C0008011C06800F0400019B110B1204601F04C
:1019D00077F9E06B002805D0012084F83900204613
:1019E000FFF793FF38BD70B50446002C04D094F87F
:1019F0003900002510B106E0012070BD84F8385090
:101A0000204600F021F8022084F839002068C168DF
:101A100021F40051C160204601F0C0F9206801693D
:101A200021F4904101612068416921F02A0141615E
:101A30002068C16841F40051C160E563012084F869
:101A40003900002070BD000030B587B00446204941
:101A50002068884239D11F48016841F001010160C6
:101A6000006800F0010001901A481430016841F04C
:101A700010010160006800F0100001904FF4007048
:101A80000290022003900121049105900720069006
:101A9000114D02A92846FEF719FE2815029002A949
:101AA0002846FEF713FE2068C16821F04001C1609E
:101AB0002068C16841F02001C1602520FEF73BFF8E
:101AC000032211462520FEF741FF07B030BD00007C
:101AD0000010014030380240000002402DE9F04182
:101AE00004460D46984694F83900012804D012287F
:101AF00002D00220BDE8F0819DB192B194F8380087
:101B0000012810D0012684F838600027E76394F894
:101B10003900122809D0222084F83900A285E285F4
:101B200036E00120E6E70220E4E7322084F83900BD
:101B3000F4E7401EE085A068B0F5805F08D043461A
:101B400000222021204601F056FAC8B10320D1E737
:101B5000434600222021204601F04DFA08B103201F
:101B6000C8E7206928B120684068C1B229806D1C8F
:101B70000EE020684068C0F308012980AD1C07E032
:101B8000206990B12068406800F07F0005F8010BE3
:101B9000E08D0028CDD194F8390032280AD084F89D
:101BA000396084F838700020A4E72068406805F8A0
:101BB000010BEDE7122084F83900F2E77047704717
:101BC00001A001F0B9FAFEE748440000F0B587B083
:101BD00000261F48016841F001010160016801F021
:101BE00001010191016841F004010160016801F007
:101BF00004010191016841F080010160006800F07A
:101C00008000019001240294039602200490032591
:101C10000595104F02A93846FEF758FD6003029063
:101C200003960494059502A90B48FEF74FFD0C207E
:101C3000029002A90948FEF749FD20020290039490
:101C40000494059502A93846FEF740FD07B0F0BDA3
:101C5000303802400000024000080240001C0240F0
:101C6000FEE770470907090E002806DA00F00F00AA
:101C700000F1E02080F8141D704700F1E02080F8AA
:101C80000014704730B40021084B0022002003EB01
:101C9000C0046254401CC0B28028F8D3491CC9B2A9
:101CA0000829F3D330BC00F0CFB80000280400208E
:101CB00010B57F2813D83F2911D80723A3EBD103F0
:101CC000DBB201F00701C1F107040121A140C9B253
:101CD000054C04EBC0001AB1C25C0A43C25410BDEB
:101CE000C25C8A43C25410BD2804002070B586B07F
:101CF00000265048016841F001010160016801F0CF
:101D000001010091016841F008010160006800F0E4
:101D1000080000904FF400400190012402940394C5
:101D20000220049001A94448FEF7D0FC1120019044
:101D3000424D01A92846FEF7C9FC2A21019101A9BB
:101D40002846FEF7C3FC002220212846FEF7AEFD00
:101D50003B4804603B4D2C602C616C60EE6064205D
:101D600001F050FEEC600021AE2000F095F800215B
:101D7000D52000F091F80021502000F08DF80021CE
:101D8000A82000F089F800213F2000F085F800210C
:101D9000D32000F081F80021084600F07DF80021F2
:101DA000402000F079F800218D2000F075F8002126
:101DB000142000F071F80021202000F06DF80021BF
:101DC000022000F069F80021A12000F065F8002150
:101DD000C02000F061F80021DA2000F05DF8002159
:101DE000122000F059F80021812000F055F8002160
:101DF000EF2000F051F80021D92000F04DF800212B
:101E0000F12000F049F80021DB2000F045F8002126
:101E1000302000F041F80021A42000F03DF800211E
:101E2000A62000F039F80021AF2000F035F806B008
:101E300070BD00003038024000000240000C02403B
:101E4000BC0240428082414270B5FEF7BCF90025D9
:101E5000104E05F1B000C0B2002100F01DF80021C5
:101E6000084600F019F80021102000F015F80024B1
:101E700006EBC4000121405D00F00EF8641CE4B2E2
:101E8000802CF5D36D1CEDB2082DE2D3BDE8704077
:101E9000FEF79BB92804002070B50F4AC2F88412DF
:101EA0000025C2F8905200210C4B0124C2F8805248
:101EB000060602D5C3F8BC4201E0C3F8BC52C2F822
:101EC00080424006000E491CC9B20829EED3C2F870
:101ED0009042C2F8844270BD0080414200004042FE
:101EE00070470A6842624A688262D1E902231A4353
:101EF000D1E904310B431A43C16A21F0F7011143C0
:101F0000C162002070470069C0B27047006800F0ED
:101F10000300704708B50349084400900098006822
:101F200008BD0000142C01400FB4DDE9011211437B
:101F3000DDE903231A431143059A1143069A11431D
:101F4000426847F6FF639A430A434260002004B0A8
:101F500070470321016000207047D0F8800070476F
:101F60000A688260D1E901231A43D1E903310B43A6
:101F70001A43C1686FF30B011143C1600020704721
:101F80000968C0F8801000207047024600204FF416
:101F9000803113685A6BC2F3C01203E05A6BC2F36C
:101FA000C012491E09B1002AF8D019B140F2FF5100
:101FB000996370470320704770B504460E460025AC
:101FC0002068426B12F0450FFBD0416B490704D5E6
:101FD000032104228263084670BD416BC90703D008
:101FE00001218163084670BDFFF78DFFB04201D02B
:101FF000102070BD216840F2FF5088630020FFF779
:1020000089FF2949084201D1284670BD002801DA1C
:102010001C2070BD410001D5092070BD810001D593
:102020000A2070BDC10001D50B2070BD010101D592
:102030000C2070BD410101D50D2070BDC10101D53D
:102040000E2070BD010201D50F2070BD410201D5E7
:10205000102070BD810201D5112070BDC10201D5D3
:10206000122070BD010301D5132070BD410301D5BD
:10207000142070BD810301D5152070BDC10301D5A9
:10208000162070BD010401D5172070BD410401D593
:10209000182070BD810401D5192070BD000701D53D
:1020A0001A2070BD284670BD08E0FFFD01460020E3
:1020B00009684A6B12F0450FFBD04A6B520703D5F3
:1020C000032004228A6370474A6BD20702D00120A2
:1020D0008863704740F2FF528A63704701460020D0
:1020E00009684A6B12F0450FFBD04A6B520703D5C3
:1020F000032004228A63704740F2FF528A637047CC
:102100002DE9F04104460F46154600262068436B32
:1021100013F0450FFBD0416B490705D5032104227D
:1021200082630846BDE8F081416BC90703D00121F5
:1021300081630846F6E7FFF7E6FEB84201D01020BB
:10214000F0E7216840F2FF5088630020FFF7E2FECD
:1021500010F4604F03D0810405D51320E2E7000C92
:1021600028803046DEE7410401D51020DAE700047C
:1021700001D50F20D6E73046D4E7024629204FF498
:1021800080311268536B13F0450307D0012305E03B
:10219000536B13F0450300D00123491E0BB90029EE
:1021A000F6D1536BC3F3800301B11BB103200421AB
:1021B00091637047516B4906FBD500204021916324
:1021C00070472DE9F04F8DB004460F4600250026DC
:1021D000009601964FF00808CDF820801020099055
:1021E00040200A900B9600010C9008A92068FFF788
:1021F000B7FE10212046FFF7DFFE00282DD1A08C6E
:10220000000408903720099008A92068FFF7A8FE6D
:1022100037212046FFF7D0FE00281ED1401E029035
:10222000CDF80C80302004904FF00209CDF81490C6
:1022300006960120079002A92068FFF752FE089633
:102240003320099008A92068FFF78AFE3321204631
:10225000FFF7B2FE0646300002D00DB0BDE8F08FA9
:10226000EA4640F22A6B07E0416B890204D5FFF78A
:1022700074FE4AF825006D1C2068416B11EA0B0FB3
:10228000F2D02168496B090703D5C0F838800420D3
:10229000E3E7416B890703D5C0F838904846DCE78F
:1022A000416B890603D5202181630620D5E7416B68
:1022B000890504D54FF4007181630720CDE740F212
:1022C000FF51816300980099000601F47F4140EAC4
:1022D0000120009901F47F0140EA1120009940EAB1
:1022E0001160786001980199000601F47F4140EA8D
:1022F0000120019901F47F0140EA1120019940EA8F
:10230000116038603046A8E710B50E480C490160EE
:10231000002141608160C16001614161816100F122
:102320006001FFF728F808B1012010BD4FF40061EB
:102330000448FFF789F908B1022010BD002010BD44
:10234000002C01407001002070B586B004460025C5
:10235000012000902068FFF7D9FDB8B1206AC0269F
:10236000042825D0002001900221029103960490B8
:102370004802059001A92068FFF7F2FD2046FFF70B
:1023800095FE054625B1284606B070BD2520FBE721
:102390000020FFF7BFFDA0630420FFF7BBFDE06353
:1023A0000820FFF7B7FD20640C20FFF7B3FD606441
:1023B000206A28B1012803D0062801D0022810D1B4
:1023C000032002904020039001A92068FFF7C8FD78
:1023D0006A4603212046FFF793FE05460DB12846C5
:1023E000D2E7206A042822D0BDF800006062000411
:1023F000019009200290039601A92068FFF7B0FD23
:102400002046FFF753FE05460DB12846BCE70020E5
:10241000FFF780FDA0620420FFF77CFDE06208204A
:10242000FFF778FD20630C20FFF774FD60632846FA
:10243000AAE7000070B586B004460D4600260020CD
:102440000090A18C090401910D210291402103917A
:1024500004900801059001A92068FFF781FD20681C
:10246000426B12F0450FFBD0416B490705D50321A4
:1024700004228263084606B070BD416BC90703D0D1
:10248000012181630846F6E7FFF73DFD0D2801D0E5
:102490001020F0E7216840F2FF5088630020FFF72A
:1024A00039FD00900098C0F343202870334900980C
:1024B000084201D13046DEE70098002801DA1C20EE
:1024C000D9E70098400001D50920D4E700988000A2
:1024D00001D50A20CFE70098C00001D50B20CAE73C
:1024E0000098000101D50C20C5E70098400101D5F6
:1024F0000D20C0E70098C00101D50E20BBE7009871
:10250000000201D50F20B6E70098400201D5102047
:10251000B1E70098800201D51120ACE70098C00215
:1025200001D51220A7E70098000301D51320A2E7E8
:102530000098400301D514209DE70098800301D541
:10254000152098E70098C00301D5162093E700985E
:10255000000401D517208EE70098400401D518200B
:1025600089E70098800401D5192084E700980007C6
:1025700001D51A207FE730467DE7000008E0FFFD27
:102580002DE9F04F87B004464FF00009CDF80490D4
:10259000002700250026A846DFF83CA1CAF8A09035
:1025A0002068FFF7D6FC0120FDF7D8FF4FF0010BA4
:1025B000CAF8A0B0CDF80890CDF80C90CDF81090E6
:1025C000CDF814904FF48060069002A92068FFF7C0
:1025D000C7FC2046FFF7D9FC01909DF8040020B10C
:1025E0009DF8040007B0BDE8F08F4FF4D57002905D
:1025F000082003904FF0400ACDF810A002A92068EF
:10260000FFF7AEFC2046FFF7B8FD01909DF80400EF
:1026100018B9C4F820B04FF08048CDF808903720A2
:10262000039002A92068FFF79BFC37212046FFF7A3
:10263000C3FC01909DF80400A8BB4FF6FF7B39E076
:10264000CDF8089037200390CDF810A0CDF8149065
:102650004FF48066069602A92068FFF781FC3721B7
:102660002046FFF7A9FC01909DF8040010B19DF8E9
:102670000400B7E7194848EA0000029029200390B7
:10268000CDF810A0CDF81490069602A92068FFF7A7
:1026900067FC2046FFF722FD01909DF8040018B169
:1026A0009DF804009EE713E00020FFF733FC074687
:1026B000FE0F6D1C0EB95D45C2D35D4504D31B20D2
:1026C00001909DF804008DE7780001D5022020627A
:1026D0009DF8040086E7000000802542000010807D
:1026E0002DE9FC5F074691464FF0000A0C46E50DC8
:1026F0006402FDF768FDB8074FF400781BD0002690
:102700004FF0010B14E07002CDE9008B0219114962
:1027100045EBE073A1F1B800FEF7BAFE82464246EF
:102720000C493846FDF799FD07F50077761CF6B29F
:102730004E45E8D309E0074822462B463946B838CB
:10274000CDE90089FEF7A4FE8246FDF73EFD504626
:10275000BDE8FC9F2802002010B586B00446019217
:102760000720029040200390002004904FF48060E6
:10277000059001A92068FFF7F3FB07212046FFF72A
:102780001BFC06B010BD30B587B00446002500958F
:1027900001950020FFF7BEFB800102D50E2007B097
:1027A00030BD69462046FFF70CFD0028F7D101989F
:1027B000C0031FD5A08C0004029037200390402056
:1027C000049005950001069002A92068FFF7C8FB58
:1027D00037212046FFF7F0FB0028E0D102950620C4
:1027E000039002A92068FFF7BBFB06212046FFF7F4
:1027F000E3FBD4E72520D2E730B587B004460025B7
:10280000009501950020FFF785FB800102D50E2081
:1028100007B030BD69462046FFF7D3FC0028F7D14A
:102820000198400320D5A08C00040290372003902B
:102830004020049005950001069002A92068FFF74A
:102840008FFB37212046FFF7B7FB0028E0D102209D
:1028500002900620039002A92068FFF781FB062161
:102860002046FFF7A9FBD3E72520D1E72DE9FC5F40
:10287000074690464FF0000B0C46E50D6402FDF74D
:10288000A2FCB8074FF400791BD000264FF0010AD4
:1028900014E04A4639461248FDF7DFFC7002CDE9E4
:1028A000009A02190E4945EBE073A1F1B800FEF75A
:1028B00008FF834607F50077761CF6B24645E8D355
:1028C00009E00748CDE9009822462B463946B8383A
:1028D000FEF7F7FE8346FDF778FC5846BDE8FC9FFF
:1028E000280200203A49884201D200207047394925
:1028F000884201D2012070473749884201D2022024
:1029000070473649884201D20320704734498842D3
:1029100001D2042070473349884201D20520704714
:102920003149884201D2062070473049884201D29D
:10293000072070472E49884201D2082070472D4950
:10294000884201D2092070472B49884201D20A20CF
:102950007047B0F1016F01D20B20704727498842C0
:1029600001D20C2070472649884201D20D207047C1
:102970002449884201D20E2070472349884201D25F
:102980000F2070472149884201D21020704720490A
:10299000884201D2112070471E49884201D212207C
:1029A00070471D49884201D2132070471B49884255
:1029B00001D2142070471A49884201D2152070476D
:1029C0001849884201D2162070471720704700002E
:1029D000004000080080000800C000080000010856
:1029E00000000208000004080000060800000808B3
:1029F00000000A0800000C0800000E080040100843
:102A00000080100800C01008000011080000120823
:102A100000001408000016080000180800001A083A
:102A200000001C0800001E08006870472DE9F04FE8
:102A300087B004460E4617464FF00008CDF80480D4
:102A4000B4F1006F3ED3A0073CD1FDF72BFE254625
:102A500004EB87071D482C464CF2503B85421FD2A1
:102A60004FF001094FF0020A18E02846FFF7DCFF9B
:102A7000401C0FD0CDF808802846FFF733FF0490A4
:102A8000CDF81490CDF818A001A902A8FDF772FDA9
:102A900030B900E02D1D5846FDF734FDBD42E4D3AA
:102AA0005846FDF72FFD48B10AE0002321460220D9
:102AB0003268FDF7B9FD18B9241D361DBC42F4D3A8
:102AC000FDF7A8FD07B0BDE8F08F00000000FF1F74
:102AD00070472DE9F84F04468946164600274FF007
:102AE0000C083046FDF7CBFBC0EBC0004006050EDE
:102AF00009F10C0000F0FF0A17E0B7B9802801D9EE
:102B0000012712E0009053462A464946204600F02D
:102B100011F8281BB0EB580F03DD04EB5800C4B2CA
:102B200000E02C46AC4203D2761C30780028E4D179
:102B3000BDE8F88F2DE9FF4F81B081460E980C4615
:102B4000A246012100914FF00C08202803D920381B
:102B500000F0FF0B01E04FF0000B00263AE0B8F167
:102B60000C0F0FD01E4800EB0B10855D03988145BC
:102B700032D8002728060CD521464846009AFFF790
:102B800097F80DE017490BEB4B0001EB8000855DDA
:102B9000ECE70098B0B1002221464846FFF788F8DC
:102BA0006806050E641CE4B2A4EB0A00404502D09E
:102BB0000498844208D90AF0FF0409F1010909F0D8
:102BC000FF0905E00122E7E77F1CFFB2082FD1D300
:102BD000761CF6B24645C2D305B0BDE8F08F0000C2
:102BE000F06000087C5C000870B592B000251C4CB9
:102BF000266846F080562660246804F080540094CD
:102C0000184C266846F440462660246804F4404484
:102C1000009401240694079402240C9466050D96F2
:102C20000E910F901092119306A8FEF7ABF800B129
:102C3000FEE7FDF7BDFE00B1FEE70F200190029414
:102C400003954FF4A05004904FF480500590052157
:102C500001A8FDF7F3FE002800D0FEE712B070BD1A
:102C60004038024000700040FDF72EBE1048016859
:102C700041F4700101600F48016841F001010160F9
:102C80000C4A00210832116002680B4B1A400260A6
:102C9000031D0A4A1A60026822F480220260054875
:102CA0000C30016002495806803908607047000006
:102CB00088ED00E000380240FFFFF6FE10300024EF
:102CC00010B50168CA6822F04002CA6090F8391055
:102CD000322906D0012180F83910FEF770FF00205C
:102CE00010BD222180F83910F7E710B590F839109F
:102CF000222903D0322901D0022010BD8168B1F50C
:102D0000805F11D0016919B30168496801F07F0340
:102D1000816A4A1C82620B70C18D491E0904090C2C
:102D2000C1851CD0002010BD816A02693AB10268D9
:102D30005268D2B20A80816A491C8162ECE702685B
:102D40005268C2F308020A80816A891C8162E3E743
:102D500001684A68816A4B1C83620A70DCE701687B
:102D6000CA6822F02002CA6090F83910322910D0C7
:102D70000168CA6822F48072CA6001684A6922F058
:102D800001024A61012180F83910FEF717FF002087
:102D900010BD122180F83910F7E700002DE9F0414D
:102DA00004462068016921F44051E2680A43026147
:102DB0002068C16849F20C6291432369A268E56901
:102DC0001A4363692B431A430A43C260206841696E
:102DD00021F44072A16911434161E06969496A4A7D
:102DE00064253226B0F5004F35D02068904201D0DE
:102DF00088427CD1FDF76EFF00EBC00101EB0010B3
:102E000061688900B0FBF1F0B0FBF5F7FDF762FFF8
:102E100000EBC00101EB001061688900B0FBF1F824
:102E2000FDF758FF00EBC00101EB0010616889005D
:102E3000B0FBF1F0B0FBF5F06FF01801484308EB80
:102E4000800006EB0010B0FBF5F0216867F31F105F
:102E50008860BDE8F0812068904201D088422FD17F
:102E6000FDF738FF00EBC00101EB0010616849007D
:102E7000B0FBF1F0B0FBF5F7FDF72CFF00EBC00164
:102E800001EB001061684900B0FBF1F8FDF722FF8B
:102E900000EBC00101EB001061684900B0FBF1F0EC
:102EA000B0FBF5F06FF01801484308EB800006EB2B
:102EB0000010B0FBF5F0216867F31F108860C8E7C9
:102EC000FDF7F2FE00EBC00101EB00106168490064
:102ED000B0FBF1F0B0FBF5F7FDF7E6FE00EBC0014B
:102EE00001EB001061684900B0FBF1F800E019E067
:102EF000FDF7DAFE00EBC00101EB0010616849004C
:102F0000B0FBF1F0B0FBF5F06FF01801484308EBAF
:102F1000800006EB0010B0FBF5F0216867F31F108E
:102F2000886096E7FDF7C0FE00EBC00101EB0010E2
:102F300061688900B0FBF1F0B0FBF5F7FDF7B4FE76
:102F400000EBC00101EB001061688900B0FBF1F8F3
:102F5000FDF7AAFE00EBC00101EB001061688900DB
:102F6000B0FBF1F0B0FBF5F06FF01801484308EB4F
:102F7000800006EB0010B0FBF5F0216867F31F102E
:102F8000886066E7001401400010014090F8391095
:102F9000122903D0322901D0022070478168B1F58F
:102FA000805F0CD0016A4A1C026202680978516095
:102FB000C18C491E0904090CC18410D019E0016AB2
:102FC00002680988C1F308015160016919B1016AF9
:102FD000491C0162ECE7016A891C0162E8E70168AB
:102FE000CA6822F08002CA600068C16841F04001EE
:102FF000C160002070472DE9F04704460F46924615
:103000001D46FDF75BFC06464FF000084FF0010936
:10301000BAF1000F23D04AE0681C20D025B1FDF79B
:103020004DFC801BA8421AD92068C16821F080019C
:10303000C1602068C16821F02001C1602068C168BA
:1030400021F48071C1602068416921F00101416172
:1030500084F8399084F838800320BDE8F087206830
:10306000006837EA0000D7D126E0681C1FD025B1E0
:10307000FDF724FC801BA84219D92068C16821F003
:103080008001C1602068C16821F02001C160206812
:10309000C16821F48071C1602068416921F001019B
:1030A000416184F8399084F838800320D5E720689E
:1030B000006837EA0000D8D00020CEE738B51B48BA
:1030C00000680068C043800627D44FF47A73012259
:1030D00069461648FEF702FD154A108801041CD403
:1030E00041044FF0000309D59DF800100A2901D0D2
:1030F000138012E040F4004010800EE09DF80010B4
:103100000D290ED0094DC0F30D04C83D2955401CB2
:1031100080B21080C72800D913800448FEF7F6FB60
:1031200038BD40F480401080F7E7000030010020F7
:1031300020000020FEE700000FB4054B10B503A9E6
:10314000044A029800F018F810BC5DF814FB000067
:10315000F94E00082400002002E008C8121F08C130
:10316000002AFAD170477047002001E001C1121F08
:10317000002AFBD1704700002DE9FF4F8DB09B4620
:103180000F460446002606E025280BD05A460F9924
:103190009047641C761C20780028F5D111B0304689
:1031A000BDE8F08F0025A8460122984900E00543BC
:1031B00014F8013F203B02FA03F00842F7D12078CF
:1031C0002E2817D114F8010F45F004052A280ED037
:1031D0006FF02F022078A0F1300109290AD808EBFE
:1031E000880102EB410100EB0108641CF2E757F88B
:1031F000048B641C20786C280DD004DC4C2812D081
:103200006A2811D104E074280DD07A280CD10AE084
:1032100045F4001507E0617845F48015814202D13C
:10322000641C05F58015641C2078692844D008DCEE
:103230000028B3D0582867D063280FD0642808D15D
:103240003AE0702865D0732812D075285AD07828B3
:103250005AD05A460F999047761CD5E017F8040BC0
:103260008DF8000000208DF80100E946012003E000
:1032700057F8049B4FF0FF3069074FF0000501D469
:103280000AE06D1C45450DDA8542FADB19F8051098
:103290000029F6D106E06D1C8542FCDB19F805100B
:1032A0000029F8D12E4404E019F8010B5A460F9971
:1032B00090476D1EF8D2A7E00A200021CDE9080151
:1032C000C5F3025002280CD001CFC117021E71F1C4
:1032D00000020CDA0023D0EB030063EB01012D2286
:1032E00008E0FF1D27F00707F7E80201EEE72A05CF
:1032F00004D52B228DF8282001223CE0EA073AD0A1
:103300002022F7E70A2000E010200021CDE9080183
:1033100007E01020002145F00405CDE908014FF039
:103320000808C5F30250022810D001CF00214FF049
:10333000000A2A0720D52278702A0DD0DDE908C3BB
:103340008CF0100C5CEA030C0CD015E0FF1D27F08C
:103350000707F7E80201EAE740228DF828204FF03E
:10336000010A0CE050EA010306D030238DF8283022
:103370008DF82920022292462278582A04D024A2CD
:103380000DF120090B9209E026A2F9E7DDE90823F7
:10339000FCF732FF0B9B9B5C09F8013D50EA0102F0
:1033A000F4D1ADEB090020300890680701D44FF04C
:1033B00001080899884503DD0898A8EB000000E0A3
:1033C00000208046002506E00AA85A46405D0F9975
:1033D00090476D1C761C5545F6DB04E030205A46BC
:1033E0000F999047761CB8F10001A8F10108F5DCAF
:1033F00005E019F8010B5A460F999047761C089979
:10340000481E08900029F4DC641CC4E60928010069
:10341000303132333435363738396162636465664A
:10342000000000003031323334353637383941420C
:1034300043444546000000002DE9F05F80461646F3
:103440009A46891ED8F82C0000EB1139C1F3C80741
:1034500001F007004FF0010B0BFA00F0C4B249462F
:1034600009F10109404602F010F910B10120BDE850
:10347000F09F4FF4007208EB070191F8345015EA01
:10348000040000D00120504501D10220EFE7654043
:1034900081F8345088F803B0761E08D0600010F030
:1034A000FF04EAD101247F1C9742E4D3D7E7002030
:1034B000DDE7000070B504460020E070401E206388
:1034C000204602F0E2F808B1042070BD04F2322078
:1034D00001F0E0FEA0F52A41553901D0032070BD6E
:1034E00004F16A0001F09FFE0C4DB5EB002F01D1F5
:1034F000002070BD04F1860001F095FEB5EB002FB1
:1035000001D1002070BD082205A104F1370002F0AE
:10351000A1F808B1022070BD012070BD00464154E1
:1035200045584641542020200000000000E0401C87
:1035300002780AB18A42FAD10078704770B5016802
:10354000846C241D4D89500A40EAC350590A2A460A
:103550000023FCF751FE02CC21B1884204D221683D
:10356000084470BD002070BD401A241DF3E7891E79
:103570008269921E8A4201D800207047C26A40893F
:1035800001FB0020704700002DE9F0478146884686
:1035900008F11A0001F07EFE10B10020BDE8F087AE
:1035A00098F8000000F03F00401E00EB800101EBA6
:1035B000C00401270025DFF860A01AF80500404488
:1035C00001F068FE06468FB1FF2C0BD2304601F0A9
:1035D000C7F907462046641C39F8100001F0C0F90D
:1035E000874201D00020D9E7374605E0A6F57F40A5
:1035F000FF3801D00020D1E76D1C0D2DDDD398F8E8
:103600000000400605D527B139F8140008B10020A4
:10361000C4E70120C2E70000347600082DE9F04736
:10362000074688463D68B8F1000F08D04146384645
:1036300001F0E0FC022809D20120BDE8F0872E69E4
:1036400016B1A869B04207D8012605E0411CF4D0A4
:10365000A9698142F1D8464628784FF0FF390428FD
:1036600009D03446641CA869A04231D80224022E35
:103670002ED20020E1E701223146284601F0CDF9A3
:103680000446200012D0601C10D001231A462146A7
:103690002846FFF7D1FE02280AD001280AD0B8F147
:1036A000000F09D0F879022809D01EE02046C4E7AF
:1036B0000120C2E74846C0E70220F87115E0701CFF
:1036C000844212D0B868301AB8610320F8710CE057
:1036D0002146384601F08EFC38B10128ADD0411C9E
:1036E000ABD0B442BED10020A7E72878042802D18D
:1036F000F879022806D04A462146284602F022F8E8
:1037000010B109E0002007E0B8F1000F04D0224614
:103710004146284602F016F820B101280FD00124B6
:1037200020468AE72C61D5E90501891E884201D22D
:10373000401E6861287940F001002871F0E74C468E
:10374000EEE700002DE9F35F8846D8F80070009896
:10375000D0F840A00024254628466D1C385C20285F
:1037600009D32F2807D05C2805D0FF2C0FD30620C3
:10377000BDE8FC9F6D1C795D2F29FBD05C29F9D039
:103780007919C8F8001020282AD2042532E0C0B2E6
:10379000A0F181017D290ED829466D1C795C01EBD1
:1037A000002080B2A1F140023F2A04D380397F2952
:1037B00001D30620DCE7012101F0A4F8064646B15A
:1037C000802E08D2314665A0FFF7B0FE18B1062062
:1037D000CEE70620CCE72046641C2AF81060BBE741
:1037E000002507E0601E3AF81000202801D02E289E
:1037F00002D1641E002CF5D100202AF814003CB13F
:1038000000980B222021806B01F039FF002702E095
:103810000620ADE77F1C3AF817002028FAD02E28A2
:10382000F8D01FB145F0030500E0641E24B1601E0E
:103830003AF810002E28F8D14FF00008C1464FF09A
:10384000080B38467F1C3AF8106006B3202E03D0D0
:103850002E2E04D1A74202D045F00305F1E7D8454A
:1038600001D2A74219D1BBF10B0F0ED0A74201D054
:1038700045F003050BD827464FF008084FF00B0B17
:103880004FEA89604FEA1069DBE745F003050098CD
:10389000806B0178E5293DD03EE0802E08D330468C
:1038A00001F05EF8002101F02DF8064645F0020512
:1038B000FF2E0FD9ABF10100804503D345F003057E
:1038C000D846BEE70098310A826B404608F10108ED
:1038D000115418E026B1314623A0FFF727FE18B196
:1038E0005F2645F003050EE0A6F14100192802D835
:1038F00049F0020907E0A6F16100192803D849F050
:103900000109203EB6B20098816B404608F10108DB
:103910000E5496E705210170BBF1080F03D14FEA61
:1039200089604FEA1069C9F38100032803D06FEA68
:103930000901890701D145F00205A90709D409F059
:103940000301012901D145F01005012801D145F0FD
:1039500008050098806BC572002009E7222A3A3CCE
:103960003E3F7C7F000000002B2C3B3D5B5D000058
:103970002DE9F05F0646894640220021304601F0DD
:103980007EFE85203070C02086F82000484602F078
:103990004BF9014606F1240002F04CF840240025C2
:1039A0004FF0010801274FF0000A4FF0C10B601CD7
:1039B00006F804B0441C06F800A027B139F81570C9
:1039C0000FB16D1CEDB23019394602F033F8A41C6A
:1039D000E006F2D108F1010808F0FF0839F81500F7
:1039E0000028E4D186F8235086F80180BDE8F09FD6
:1039F00010B504460420FDF766FF0148046010BDC1
:103A00001C00002070B5054600244FF47A7603E0D0
:103A1000304600F005F8641CAC42F9D370BD0000DC
:103A200070B500214FF0E0256C690A4A12685043D6
:103A3000AB69AA699A42FCD003D2A3EB02031944F2
:103A400003E0A4EB02063344194413468142F0D349
:103A500070BD00001C0000202DE9F04104460F4617
:103A600026680021204600F0E0FAF8B9002530462B
:103A7000216B01F00AFEC8B93178042905D0616BC9
:103A80000A78E52A07D032B109E0616B097841F381
:103A9000C011491C03D06D1CBD4207D000E00025B9
:103AA0000121204600F0A9F80028E0D0042800D128
:103AB0000720BDE8F0812DE9F05F0446D4F80080CE
:103AC0000021204600F0B1FA002849D198F8000002
:103AD00004280DD0FF26B1464FF0FF3AC4F83CA0B1
:103AE0004046216B01F0D1FD074638004CD139E04A
:103AF000206C02F099F882462AE0D8F80C002430B5
:103B000001F0C8FB504523D1D8F80C0090F8236091
:103B10004025002715E0E80600D1AD1CD8F80C00C0
:103B2000284401F0B7FB00F01BFF8146206C30F801
:103B3000170000F015FF814505D1761EF6B2AD1CC9
:103B40007F1C002EE7D11EB9206C30F8170030B171
:103B50000021204600F0E1F8B0F1000BCDD058462E
:103B6000BDE8F09F606B05786DB1C17A01F03F014F
:103B7000A171E52D03D00A0707D50F2905D0FF262F
:103B8000C4F83CA02FE0042735E00F2901D0D6B1BE
:103B90001DE0226C3AB3690606D590F80D9025F029
:103BA00040052E46A16AE163B54209D1417B4945F2
:103BB00006D101461046FFF7E7FC08B1761E00E08B
:103BC000FF26F6B20FE001F06CFF484513D0A16B61
:103BD000C87AC00704D10B22606B01F03BFD50B1E5
:103BE000FF26C4F83CA00021204600F006F8074656
:103BF00038003FF475AF3846B2E72DE9F047054687
:103C00000F462C68D5F8288008F12008286B00287A
:103C100006D02178042906D04FF40011414505D87B
:103C20000420BDE8F0874FF08051F7E75FEAC85104
:103C30006AD1401C2863E96A4FF0000929B1608904
:103C4000401E10EA582F08D05EE02089B0EB581FC4
:103C50005AD8C5F830900420E3E7284601F0CAF9A5
:103C60000646012E01D80220DBE7701C18D0A0699F
:103C7000B04243D8B7B12846E96AFFF7CFFC064601
:103C8000300013D0012E13D0701C13D0E87940F00F
:103C90000400E871204601F055FF68B10120C0E73B
:103CA0000120BEE7C5F830900420BAE70720B8E746
:103CB0000220B6E70120B4E74FF40072002104F1BE
:103CC000340001F0DCFC002731462046FFF74FFCB2
:103CD00020634FF001090BE084F80390204601F0C7
:103CE00031FF08B101209CE77F1C206B401C206342
:103CF0006089B842F0D8206BC01B2063EE62314669
:103D00002046FFF734FC2863C5F82880C8F3080074
:103D1000204434306863002083E72DE9F0470546EE
:103D20008A460427D5F80090FF26B04664E048464E
:103D300001F0ABFC0746380061D1686B0478A4B190
:103D400099F80010042912D0C17A01F03F01A9713D
:103D5000E52C08D02E2C06D021F02002082A1DD0F8
:103D6000002252451CD0FF2636E0042747E0BAF176
:103D7000000F02D0832C42D02EE0852C2CD1A86AD3
:103D8000E863284601F0A7FA0746380037D1D9F88A
:103D90000C00007900F03F00A87130E00122E0E75C
:103DA0000F2901D026BB1FE0610606D590F80D80D3
:103DB00024F040042646A96AE963B4420AD1417B53
:103DC000414507D12A6C0146104601F079FC08B143
:103DD000761E00E0FF26F6B200212846FFF70DFF11
:103DE0000746380008D00AE001F05BFE404506D0E7
:103DF0004FF0FF30E86302E0296B002997D10FB143
:103E0000002028633846BDE8F0872DE9F04395B0DF
:103E100004462668D4F83890D4F8408099F80B000E
:103E200010F0A00F03D0062015B0BDE8F0830025E8
:103E300000E06D1C38F815000028FAD13078002712
:103E4000042817D00C22494612A801F00FFC9DF857
:103E50005300C00764D089F80B70276401273B46E4
:103E6000424612A9484601F079F82046FFF723FEA2
:103E7000E8BB48E00E350F20B5FBF0F5AD1C294638
:103E80002046FFF7E9FD0028CED16D1EA06A6942E9
:103E900000EB4110E063E07941072ED500F003000C
:103EA000E0717189D4E90420490251187841C4E9CC
:103EB0000410204600F09AFD0028B5D1214668463E
:103EC00001F0EDF90028AFD1D4E90423F0683830CF
:103ED00001F08CFDD4E90423F068283001F086FD60
:103EE000E079F16840F0010081F8210000E00DE088
:103EF000684601F0A3FD002896D14146F068FFF71F
:103F000037FD002090E77F1C642FA8D3642F11D0C9
:103F1000042889D19DF8530089F80B00C4F840802B
:103F20009DF85300800707D50C350D20B5FBF0F741
:103F30007F1C02E0072077E7012739462046FFF77C
:103F40008BFD05464FF001082DBB7F1E23D0A06AD4
:103F5000794200EB4111204600F067F80546280041
:103F600019D1A06B01F09DFD81463046216B01F017
:103F70008CFB05467DB9FAB24B46616B206C01F0B3
:103F800065FC86F8038000212046FFF736FE0546D3
:103F90000DB97F1EE9D1BDB93046216B01F075FB2B
:103FA00005468DB920220021606B01F068FBD4E941
:103FB0000D010B2201F05AFBA06B616BC07A00F07F
:103FC0001800087386F8038028462DE770B504466C
:103FD0002568A66AE16B481C0AD0204600F025F847
:103FE00000281BD12846216B01F04FFB98B901E056
:103FF0000020F5E72978042911D0626BE5211170C2
:104000000121E970A16AB14205D200212046FFF7E3
:10401000F4FD0028E6D0042800D1022070BD616BB9
:104020000A7802F07F020A70EAE72DE9F0410646BD
:104030000D4637683878042808D04FF40010A8429D
:1040400001D9E80605D00220BDE8F0814FF080508C
:10405000F5E7B562B4682CB93878032802D3BC6A96
:104060000020F0711CB178894FEA40281AE03889A5
:10407000B0EB551F01D80220E6E7B86A306318E0BC
:104080002146304600F0B6FF0446601C06D0022CE4
:1040900002D3B869A04203D80220D5E70120D3E7B4
:1040A000A5EB08054545EBD221463846FFF75FFAF8
:1040B0003063F462306B48B100EB55203063C5F3D8
:1040C00008003844343070630020BDE70220BBE7AD
:1040D00010B5FEF719F908B1012010BD002010BD80
:1040E000030008D141B10F48012911D0022905D0A0
:1040F000032908D004207047002070474FF4007057
:10410000106000207047B0F8500010800020704709
:10411000816CB0F84C00C30543EA512010600020C8
:1041200070470000D001002070B50D4616461C46B1
:10413000002C05D0224631462846FEF7D1FA08E089
:10414000042070BDFEF7E0F8224631462846FEF70F
:10415000C7FA0028F6D170BD0020704770B50D4633
:1041600016461C46002C05D0E2B231462846FEF722
:104170007DFB08E0042070BDFEF7C6F8E2B23146D0
:104180002846FEF773FB0028F6D170BD70B50024F9
:10419000134D4FF40D76304601F026FA45F8240011
:1041A00018B1641CE4B2032CF5D34FF414763046F6
:1041B00001F01AFA0B4D2860304601F015FA6860DC
:1041C0004FF4007001F010FAA860032C06D12968A2
:1041D00021B1696811B108B1002070BD012070BD26
:1041E000440800203000002038B50446204600F086
:1041F00049FA002807D16946204601F0DFFC002873
:1042000001D10021216038BD17B581B01446029854
:104210000090684600F086FF002802DA0B2004B008
:1042200010BD0B4B53F82010002201B10A70019908
:10423000002900D00A7043F8201001D0012C01D0D1
:104240000020ECE7002201A902A800F029FCE6E723
:10425000380800202DE9F74F96B00446002C0ED008
:104260004FF00008C4F8008002F01F06324603A990
:1042700017A800F015FC0546280004D00DE1092020
:1042800019B0BDE8F08F039804904FF48C6000F0F3
:1042900063FB074638000ED0CDF848D01497049938
:1042A00007F50070C86004A8179900F0C9FD05461D
:1042B000280002D006E01120E2E71298C07A00063A
:1042C00000D5062516F01C0F7DD045B1042D03D175
:1042D00004A8FFF79AFD054646F0080609E09DF898
:1042E000160010F0110F01D0072502E0700700D56D
:1042F0000825002D38D1300736D500F011FF834650
:1043000003984FF020094FF0010A017804292CD0BE
:10431000119859460E3001F061FB1198594616303C
:1043200001F05CFB119880F80B901199039800F054
:1043300067FF814600221199039801F03BFB119819
:1043400000211C3001F04AFB039880F803A0B9F16A
:10435000000F76D0D0F830A00022494604A801F022
:10436000AFFA0546280055D06BE020600398C0687E
:10437000343000F058FFA0600398C068383000F077
:104380005DFFC4E904010398C16891F8211001F0B0
:104390000201E171C0685946083001F01FFB039823
:1043A000C16881F81480C06859460C3001F016FBD2
:1043B0000398C16881F81580C16881F80490C068CD
:1043C0003430002100E030E001F008FB03980022C7
:1043D0001346C068383001F009FB039800221346E9
:1043E000C068283001F002FB0398C06880F821A063
:1043F00004A801F023FB0546280022D1A16801B3DF
:104400000022204601F05CFA0546A0680399401E90
:10441000086116E05146039801F037F90546039804
:10442000A9F10109C0F810900BE055B99DF81600EC
:10443000C10601D5042504E0B10702D5C00700D0AC
:10444000072545B9300701D546F020060398006BD3
:10445000206411986064EDB90398017804291ED096
:10446000119900F0CDFEA06011981C3000F0DBFE29
:10447000C4E90408C4F8488084F829800021216335
:104480006163C4F83C8084F8286003982060039836
:10449000C088A080384600F061FA2846F0E6C0687F
:1044A000343000F0C0FEA0600398C068383000F0DF
:1044B000C5FEC4E904010398C06890F8210000F02B
:1044C0000200E0710698E06108989DF8171020F04E
:1044D000FF000843206213986062CBE72DE9FC5F80
:1044E00004460F46164698460025C8F8005069460F
:1044F000204601F063FB00281AD194F82900002817
:1045000016D194F82800C00711D0D4E90431D4E9B9
:104510000C02181A61EB0201831B71F1000100D239
:10452000064604F14C004FF001090190A5E0072078
:10453000BDE8FC9F208EC0057ED1D4E90C230098F5
:10454000550A45EAC3554089401E0540BDB952EAA7
:10455000030005D0A06C28B12046FEF7EFFF05E070
:10456000A06803E02046A16B00F044FD022803D2BE
:10457000022084F82900DBE7411C1FD0A063A16B57
:104580000098FEF7F4FFE8B100EB050B4FEA562A5E
:10459000BAF1000F2DD0009805EB0A0241898A423A
:1045A00001D9A1EB050A407853465A463946FFF730
:1045B000BBFD58B184F829900120B9E784F829900F
:1045C0000120B5E7022084F82900B1E794F828001B
:1045D00040060BD5E06BA0EB0B00504506D207EB75
:1045E00040204FF40072019901F040F84FEA4A254B
:1045F00035E0E26B5A4522D094F82800400610D5E9
:104600000098012301994078FFF7A8FD18B184F8BC
:10461000299001208CE794F8280020F0400084F8CD
:104620002800009801235A4640780199FFF77CFD45
:1046300028B184F8299000E003E0012078E7C4F86D
:104640003CB0208EC0F30800C0F50075B54200D91B
:10465000354601194C312A46384601F007F82F44F7
:10466000D4E90C20521940F10000C4E90C20D8F81C
:1046700000002844C8F80000761B002E7FF45AAFD3
:10468000002055E7F0B593B0044612A9204601F08A
:1046900095FA0546002D24D194F82800810620D5EE
:1046A000400611D51298E26B0123407804F14C01C9
:1046B000FFF754FD10B1012013B0F0BD94F82800AD
:1046C00020F0400084F8280000F02AFD06461298E9
:1046D0000178042906D0216C00F0D7FF0546002D93
:1046E00057D07BE0204600F081F90546002D75D1BA
:1046F0004FF4187000F030F90746380008D01298CF
:10470000C7602146684600F0CAFD054615B13CE089
:104710001120D1E71298C1680A7942F020020A718B
:10472000E179C26841F0010182F82110C068A168F6
:10473000343001F053F9D4E904231298C0683830BA
:1047400001F054F9D4E904231298C068283001F02C
:104750004DF912983146C0680C3001F03FF91298BB
:104760000021C2685175C068103001F037F9684601
:1047700001F064F9054645B9129801F09FF9054624
:1047800014F8280F20F020002070384600F0E6F8DA
:1047900024E0656CE87A40F02000E8722946A268BF
:1047A000206801F007F905F11C00216901F016F9F4
:1047B000314605F1160001F011F9002105F1120052
:1047C00001F038F912980121C17001F077F905461E
:1047D00094F8280020F0200084F8280028466BE791
:1047E00071B5B5B0002602220FA935A800F058F91E
:1047F00004460F98229020007ED14FF48C6000F088
:10480000ABF8054628000ED001A8309032952299C9
:1048100005F50070C86022A8359900F011FB044628
:10482000200003D067E0112036B070BD3098C07A08
:10483000000601D5062404E09DF88E00C00700D0D4
:104840000724ECBB0F980490017804290ED02F990F
:1048500000F0D6FC06469DF88E00C00638D50F98AD
:10486000109012960078042816D01DE0C0683430ED
:1048700000F0D9FC064606900F98C068383000F06A
:10488000DDFCCDE908010F98C06890F8210000F028
:1048900002008DF81700DEE7DDE90801CDE914011B
:1048A0009DF817008DF84700002110A8FFF7BDFB09
:1048B000044620000CD1002110A8FFF72EFA00E0DA
:1048C00006E00446200000D10724042C00D1002477
:1048D0008CB922A8FFF77AFB0446200006D12EB13E
:1048E0000022314604A800F0EBFF04461CB90F98E3
:1048F00001F0E4F8044600E002E0284600F02EF85B
:10490000204691E770B5802820D311B1114D0924BC
:1049100002E0104D283D092400231022E11A01EB8A
:10492000D17103EB610135F82160864207D001D2D5
:104930000B4600E00C46A2F10102002AEED132B192
:104940004FF0010000EB410035F8100070BD4FF052
:10495000000070BDA676000800F046BE00F0D6BA92
:1049600030B5B0F5805F01D21E4900E01E4931F834
:10497000022B002A14D0904212D331F8023B1C0AB9
:10498000DBB2D518854228D9092C09D2DFE804F01A
:1049900005090F1215181B1E2100801A31F810008E
:1049A00030BD811A01F00101401A80B230BD1038CB
:1049B00080B230BD203880B230BD303880B230BDDA
:1049C0001A3880B230BD083080B230BD503880B265
:1049D00030BDA0F5E35080B230BD002CC7D101EB53
:1049E0004301C4E7CE760008C078000870B50646DB
:1049F000F07903280FD1B468B56908E0621C21463C
:104A0000306800F09FFE002806D1641C6D1E002D4A
:104A1000F4D10020F071002070BD2DE9F04706466A
:104A200091468F1EB069801EB84200D800273C46D0
:104A3000A0460025F06A00EB1431304600F025FE58
:104A400018B14FF0FF30BDE8F087C4F3C80304F09D
:104A5000070101208840C0B2B269921EF11891F896
:104A6000341001404006000E641C944203D300241D
:104A700000204FF4805329B1A0460025BC4207D145
:104A80000020E0E76D1C4D45F8D108F10200DAE79F
:104A90000028E3D101205B1CB3F5007FDED3C9E71A
:104AA0002DE9FF5F0E4617464FF00008C6F800805C
:104AB00000F038FB0546280003D50B2004B0BDE804
:104AC000F09FDB4850F825409CB1346027F0010688
:104AD000207820B16078FFF73FFBC1070BD084F846
:104AE0000080E8B26070FFF7F3FAC1070AD0032034
:104AF000E4E70C20E2E71EB1400701D50A20DDE71C
:104B00000020DBE71EB1400701D50A20D6E70025CB
:104B100029462046FEF7CEFC02281FD16F4604EB43
:104B2000051000F5F970017919B1083000F07BFB30
:104B300000E0002047F825006D1C042DEFD300266F
:104B400057F8265025B129462046FEF7B3FC00E071
:104B50000320022802D3761C042EF1D3042803D0AC
:104B6000022803D30D20A9E70120A7E74FF0FF3962
:104B70004FF4007A012807D004F13F0000F08AFBCF
:104B8000504577D00D2099E70B2000E0401C4028CD
:104B900004D2211891F834100029F7D0402801D20E
:104BA0000D208BE704F19C0000F074FBB0F5807FD2
:104BB00001D00D2082E794F8A0004FF0010B0BFA12
:104BC00000F0504501D00D2078E704F17C0000F0A2
:104BD00035FB461941EB0807012F01D30D206DE786
:104BE00004F1880000F01FFBE06194F8A200A070BF
:104BF000012801D00D2061E794F8A1000BFA00FB19
:104C00001FFA8BF0608160B104F1900000F00BFBA3
:104C100083460BF10200A061B0F1004F03D30D20D9
:104C20004CE70D204AE7256204F18C0000F0FBFA06
:104C30002844E06204F1840000F0F5FA2844606240
:104C40006189E06A0BFB0100301A77EB080701D29B
:104C50000D2033E704F1940000F0E5FAA06201466C
:104C60002046FEF784FC0146204600F00EFD10B100
:104C7000012023E717E00025601990F834108129FE
:104C800004D1483000F0CFFA022802D02035554533
:104C9000F2D3554501D10D2010E7C4F81490C4F8A3
:104CA00010900426BBE004F14A0000F0F3FA18B9B2
:104CB00004F1580000F0B7FAE06194F84470A7706E
:104CC000012F03D0022F01D00D20F7E6474394F8BF
:104CD0004100608110B1411E084201D00D20EDE677
:104CE00004F1450000F0D6FA2081000701D00D2024
:104CF000E4E604F1470000F0CDFA0646300004D1A6
:104D000004F1540000F08FFA064604F1420000F06E
:104D1000C1FA014639B12389C81900EB1312964232
:104D200003D20D20CAE60D20C8E6B01A6689B0FB92
:104D3000F6F030B3012640F6F67C604500D302263B
:104D40004FF6F67C604500D30326801CA0612562E7
:104D5000294461622A44E262032E14D033B33944F9
:104D6000A162022E24D000F0010100EB400001EB13
:104D70005000E16900F2FF10B1EB502F1AD20D2064
:104D80009CE60D209AE604F15E0000F083FA08B17B
:104D90000D2093E6208908B10D208FE604F1600014
:104DA00000F041FAA062A0698000E2E70D2085E6EC
:104DB0004000DEE7C4F81490C4F810908020207101
:104DC000032E2CD104F1640000F064FA012826D1EE
:104DD000691C204600F059FC08BB84F8048004F2EA
:104DE000322000F057FAA0F52A41553917D104F1C5
:104DF000340000F018FA0F49884210D104F506700B
:104E000000F011FA0C49884209D104F5077000F04E
:104E10000AFA606104F5087000F005FA2061267056
:104E200006490888401C0880E080002046E6000013
:104E30003808002052526141727241612C000020FA
:104E400073B50446256801E0401C01900198017883
:104E50002F29F9D05C29F7D00021A16001980078B2
:104E6000202807D2A16B8020C87200212046FFF7BE
:104E7000DCF87CBD01A92046FEF764FC0028F8D1CF
:104E80002046FEF718FEA16BC97A28B10428F0D19C
:104E90004907EED405207CBD4907FCD4A079C006A3
:104EA00001D405207CBD2878042809D0208DC0F3CA
:104EB000080041193431284600F0A2F9A060D9E772
:104EC000A168E1612069E17920F0FF0008432062D8
:104ED000E16B6162E868343000F0A5F9A060E86831
:104EE00090F8210000F00201E171E868383000F02C
:104EF000A5F9C4E90401BDE703490A685206FCD5D7
:104F0000C2B24A60704700000010014010B500288E
:104F100021D0114B0022001F196803E0814203D801
:104F20000A4649680029F9D152B11368841A9C4293
:104F300004D1006818441060104602E0506000E0A0
:104F4000186039B102680B1A934203D10B681A44F6
:104F500002604968416010BD400000207CB50546F4
:104F600016461C460B22284600F080FB052C11D962
:104F70001F480CE0B61C002322460C4662F35F0477
:104F80004908E20300D544405B1C102BF4D3318860
:104F90000029EFD107226B4604F00F013031392987
:104FA00001D9C91DC9B21046521E19542409002C3A
:104FB000F2D17E2098540021541E06E081387D28CD
:104FC00002D8A14206D0491C491C914202D2685C19
:104FD0002028F3D1082A03D21046521C185C00E0A6
:104FE00020200C46491C28550829F3D37CBD00001D
:104FF000211001002DE9F04702460D461468022DEC
:1050000002D3A069A84201D8012686E04FF0FF36FE
:105010002078012809D002282DD0F10D01EA85075A
:10502000032837D0042877D142E005EB5507606AA2
:1050300000EB5721204600F028FB00286DD1C7F374
:105040000800204407F1010890F83490606A00EBF2
:105050005821204600F019FB48BBC8F30800204443
:1050600090F8340049EA0020E90701D0060954E02D
:10507000C0F30B0651E0606A00EB1521204600F0FA
:1050800004FBA0B9E8B204EB4000343000F002F9B0
:10509000064642E0606A00EBD511204600F0F5FAC2
:1050A00028B93819343000F0BEF820F0704634E0EA
:1050B000D2E9040150EA01032ED09368EB1A401E96
:1050C00041F1FF31400A40EAC1506189B0FBF1F182
:1050D000D079022808D18B4206D802D16FF0004661
:1050E0001BE005F1010618E0032804D191699942FB
:1050F00001D96E1C11E002280ED0606A00EBD511B8
:10510000204600F0C2FA40B93819343000F08BF86C
:1051100020F0004601E0FFE701263046BDE8F087B9
:105120000020704710B504464FF0FF302368002B75
:105130000BD0194600E0491C0A78202A01D33A2AEC
:10514000F9D10A783A2A01D0002010BD13F8012BBA
:10515000303A0A2AF9D28B42F7D1032AF5D2104607
:10516000491C216010BD000010B50168074A1140BC
:10517000B1F1005F09D14168054C21600068FBF77F
:1051800026F82068BDE81040004710BD0000F02F51
:10519000280000202DE9F04707460C4690460025E0
:1051A00000264FF400791BE0E0780006A17840EA81
:1051B0000140617840EA012114F8040B08432946B4
:1051C0000E4A6D1CADB242F821004A46954206D106
:1051D00000250A493846FDF729FC07F50067361D0A
:1051E0004645E1D3002D06D02A463846BDE8F047B3
:1051F0000249FDF71BBCBDE8F087000000680220F3
:1052000070B506460D4605F11A0000F043F8044655
:105210003078032805D105F1140000F03BF844EA8A
:105220000044204670BDC178827842EA012142786C
:1052300042EA0121007840EA0120704710B5C179A7
:1052400083790A0E43EA01211202437942EA11628C
:1052500043EA01211202037942EA116243EA012181
:105260001202C37842EA116243EA012112028378F2
:1052700042EA116243EA0121130243EA11630A027E
:1052800041780A431902007841EA126140EA022299
:10529000104610BD4178007840EA0120704710B5F3
:1052A000044608682060C869A06091F82000E07199
:1052B000086A002220F0FF00C4E90402496AE163A1
:1052C0002046FEF7B2FE002804D12046BDE810407B
:1052D00000F001B810BD2DE9F04104462068C66811
:1052E000216B00F0D2F9002804D1616B0878852881
:1052F00002D00220BDE8F0812022304600F0B6F94D
:1053000077787F1C00212046FEF777FC0028F1D13A
:10531000216B206800F0B9F90028EBD1616B0878A7
:10532000C02801D00220E5E7202206F1200000F08D
:105330009DF9F81E112801D30420DBE740257F01E9
:1053400000212046FEF759FC0028D3D1216B2068AC
:1053500000F09BF90028CDD1616B0878C12801D0FD
:105360000220C7E77019202200F080F92035BD42E5
:10537000E6D3304600F03CFC0446B01CFFF78AFF41
:10538000844201D00220B5E70020B3E708B5FBF75F
:10539000A3FA0823022219214FF4B470FDF724FC6C
:1053A000B420FEF725FB4FF4E13000F0F5FBFCF7ED
:1053B0000DFCFCF79BFC00224FF480714D48FBF77D
:1053C00075FAFCF7A1FF0028FBD1FEF7DFFE4A4C7F
:1053D00001224AA12068FEF717FF40B1012247A130
:1053E0002068FEF711FF014645A0FDF7A5FE4D4ED2
:1053F000012247A13068FEF72DFFDFF82C8100283D
:1054000026D0012242A13068FEF724FF014647A0C2
:10541000FDF792FE3068FEF7E7FE002237A1104646
:10542000FEF7F2FED8F8041001F07F41009144A08D
:10543000FDF782FE694644A0FDF77EFED8F8041011
:105440000822B2EB116F51D14046FFF78DFE50E0BC
:105450003068D0F810903FA04946FDF76DFE40A09F
:10546000FDF76AFE43A220211020FDF732FBFCF776
:10547000EBFC45A0FDF760FE6420FEF7C3FA464F43
:10548000464C4FF40065444B2A4621683068FFF7CC
:1054900025F818B142A0FDF74FFEF4E721683868FF
:1054A00001442160A842EED24A463F494046FFF7F8
:1054B00071FEFBF7AFF83DA0FDF73EFE3068FEF74A
:1054C00093FE13A0FFF78CF9FCF7DCFB012080F3BF
:1054D0001388BFF34F8F3B4908683B4A00F4E060F4
:1054E00010430860BFF34F8F00BFFDE737A0FDF703
:1054F00023FEFEE70000024044080020303A00008E
:10550000B9D2D4D8CAA7B0DC3D25640D0A0000008A
:10551000303A2F53746574686F73636F70652E62D1
:10552000696E00003000002000000108CEB4B7A270
:10553000CFD6D0C2B9CCBCFE3D25640D0A00000018
:1055400074743D25780A0D002674743D25700A0D8B
:105550000000000073697A653D25640A0D000000B3
:10556000BFAACABCB8FCD0C2B9CCBCFE2E2E2E0D30
:105570000A0D0A005570646174696E67204669728D
:105580006D57617265000000B2C1B3FDD6D02E2EFA
:105590002E0D0A0D0A0000003C0000200000002033
:1055A0006661696C00000000001000200D0AB9CC93
:1055B000BCFEB8FCD0C2CDEAB3C9A3A1A3A10D0A19
:1055C000000000000CED00E00400FA05B7C7464CEF
:1055D000415348D3A6D3C3B3CCD0F22CCEDEB7A868
:1055E000D6B4D0D0210D0A00F0B50B30154D20F007
:1055F00007010024144A0FE003688B420BD38B424F
:1056000005D95E1A43184768C3E9006700E043689C
:10561000136002C004E0021D10680028ECD120468F
:10562000002802D1286808B10020F0BD064A0748CA
:105630001060074A121A22F00702C0E90024012074
:105640002860D7E7440000204000002004880220A2
:1056500000A8022010B510F8013B11F8014B1B1BEC
:10566000521E01D0002BF6D0184610BD002A05D0DE
:1056700011F8013B00F8013B521EF9D17047C9B245
:1056800000F8011B521EFBD1704770B504460E4650
:105690000025206BB04210D0204600F053FA05469A
:1056A0005DB960780123324604F13401FEF73CFD18
:1056B00010B14FF0FF3601252663284670BD00006B
:1056C0002DE9F04707460E4606F11A00FFF7E2FD06
:1056D00010B10020BDE8F087307800F03F00401E98
:1056E00000EB800101EBC0044FF0010A0025DFF858
:1056F00050804FF6FF7918F805003044FFF7CAFDD7
:10570000BAF1000F09D0FF2C01D30020E2E72146B7
:105710008246641C27F8110003E0484501D00020B0
:10572000D8E76D1C0D2DE6D33078400606D5FF2C4A
:1057300001D30020CEE7002027F814000120C9E79C
:10574000347600082DE9F04704460D461746022638
:10575000022D77D3A069A84274D920784FF00109AF
:10576000012806D002283CD003284DD0042869D156
:105770004AE005EB5508606A00EB58212046FFF728
:1057800084FF064630005DD1C8F30800204408F1CC
:10579000010A3430E90704D00178FAB262F31F112C
:1057A00000E03946017084F80390606A00EB5A21EA
:1057B0002046FFF76AFF0646300043D1CAF30800CF
:1057C00020443430E90702D0C7F3071105E001781F
:1057D000C7F3032201F0F0011143017084F8039034
:1057E00030E0606A00EB15212046FFF74EFF0646C9
:1057F000300027D1E8B204EB4000B9B2343000F0F9
:1058000019F984F803901DE0606A00EBD511204679
:10581000FFF73BFF0646300014D140F2FF1000EACC
:105820008500217805193435042905D02846FFF76D
:10583000FAFC67F31B0007462846394600F0CEF80D
:1058400084F803903046BDE8F08700002DE9F05F52
:1058500081460E46904673730F20F072002030731D
:10586000002106F11A0000F0E5F8A8F1010000EBB4
:10587000800101EBC00500242746DFF840B04FF659
:10588000FF7A544503D028466D1C39F810401BF8A8
:1058900007002146304400F0CDF804B954467F1C7F
:1058A0000D2FEED3544502D039F8150008B948F051
:1058B000400886F80080BDE8F09F000034760008BC
:1058C0002DE9F04780460F469146D8F80040BA4689
:1058D0003E46022F02D3A069B84202D80220BDE89A
:1058E000F087B9F1000F0ED02078042803D198F882
:1058F0000700022807D04FF0FF3249462046FFF745
:1059000021FF0028EBD139464046FFF773FB0546DF
:10591000280032D0012D19D0681C19D02078042815
:1059200006D0002239462046FFF70CFF0028D6D1CA
:105930006069411C05D0401C6061207940F0010085
:105940002071701CA84205D12E4612E00220C6E745
:105950000120C4E72078042809D1A6EB0A02521CD2
:10596000002351462046FDF767FD0028B7D12E469B
:10597000AA462F46A069B842C5D82078042817D176
:10598000B9F1000F04D098F80700032804D00FE005
:10599000002088F807000BE0D8F80800484507D831
:1059A000D8F818100844484502D3022088F80700A8
:1059B000002094E770B506460C461546A9B204F1DE
:1059C0001A0000F037F83078032806D1290C04F1CA
:1059D0001400BDE8704000F02DB870BD0170090AD8
:1059E0004170090A8170090AC17070470270120A79
:1059F00042EA03621B0A4270120A42EA03621B0A6D
:105A00008270120A42EA03621B0AC270120A42EA58
:105A100003621B0A0271120A42EA03621B0A427104
:105A2000120A42EA03621B0A8271120A42EA036204
:105A3000C27170470170090A417070472DE9F04149
:105A400004462068C568284600F0D2F80146A81C24
:105A5000FFF7F0FF6F787F1C2046E16BFEF7E5FA59
:105A600006460FE020222946606BFFF7FFFD216804
:105A70000120C8707F1E0CD0203500212046FEF783
:105A8000BCF806462EB9216B2068FFF7FEFD061E06
:105A9000E8D026B1012E02D00220BDE8F0813046C8
:105AA000FBE7014600200B22430803EBC01011F86E
:105AB000013B1844C0B2521EF6D1704770B504467F
:105AC000204600F03FF80546B5BB207803282CD1CE
:105AD0002079012829D1420204F134000021064630
